20251015-13:49:08.190936000 : 8=FIXT.1.1|9=65|35=0|34=48|49=ForecastEx|52=20251015-13:49:08.190583122|56=4C001|10=148|
20251015-13:49:38.191596000 : 8=FIXT.1.1|9=65|35=0|34=49|49=ForecastEx|52=20251015-13:49:38.191238503|56=4C001|10=153|
20251015-13:49:38.191745000 : 8=FIXT.1.1|9=59|35=0|34=49|49=4C001|52=20251015-13:49:38.191|56=ForecastEx|10=103|
20251015-13:50:08.191776000 : 8=FIXT.1.1|9=65|35=0|34=50|49=ForecastEx|52=20251015-13:50:08.191402512|56=4C001|10=127|
20251015-13:50:08.191918000 : 8=FIXT.1.1|9=59|35=0|34=50|49=4C001|52=20251015-13:50:08.191|56=ForecastEx|10=084|
20251015-13:50:38.192920000 : 8=FIXT.1.1|9=65|35=0|34=51|49=ForecastEx|52=20251015-13:50:38.192410474|56=4C001|10=138|
20251015-13:50:38.193083000 : 8=FIXT.1.1|9=59|35=0|34=51|49=4C001|52=20251015-13:50:38.193|56=ForecastEx|10=090|
20251015-13:51:08.193755000 : 8=FIXT.1.1|9=65|35=0|34=52|49=ForecastEx|52=20251015-13:51:08.193339965|56=4C001|10=153|
20251015-13:51:08.193908000 : 8=FIXT.1.1|9=59|35=0|34=52|49=4C001|52=20251015-13:51:08.193|56=ForecastEx|10=089|
20251015-13:51:38.194508000 : 8=FIXT.1.1|9=65|35=0|34=53|49=ForecastEx|52=20251015-13:51:38.194003287|56=4C001|10=143|
20251015-13:51:38.194652000 : 8=FIXT.1.1|9=59|35=0|34=53|49=4C001|52=20251015-13:51:38.194|56=ForecastEx|10=094|
20251015-13:52:08.195615000 : 8=FIXT.1.1|9=65|35=0|34=54|49=ForecastEx|52=20251015-13:52:08.195202322|56=4C001|10=134|
20251015-13:52:08.195765000 : 8=FIXT.1.1|9=59|35=0|34=54|49=4C001|52=20251015-13:52:08.195|56=ForecastEx|10=094|
20251015-13:52:38.196133000 : 8=FIXT.1.1|9=65|35=0|34=55|49=ForecastEx|52=20251015-13:52:38.195710327|56=4C001|10=147|
20251015-13:52:38.196285000 : 8=FIXT.1.1|9=59|35=0|34=55|49=4C001|52=20251015-13:52:38.196|56=ForecastEx|10=099|
